{
  "contractName": "DartContract",
  "abi": [
    {
      "constant": true,
      "inputs": [],
      "name": "adpoint",
      "outputs": [
        {
          "name": "",
          "type": "address"
        }
      ],
      "payable": false,
      "stateMutability": "view",
      "type": "function"
    },
    {
      "constant": true,
      "inputs": [
        {
          "name": "",
          "type": "address"
        }
      ],
      "name": "pvt",
      "outputs": [
        {
          "name": "",
          "type": "bool"
        }
      ],
      "payable": false,
      "stateMutability": "view",
      "type": "function"
    },
    {
      "constant": true,
      "inputs": [
        {
          "name": "",
          "type": "uint256"
        }
      ],
      "name": "dartProduct",
      "outputs": [
        {
          "name": "number",
          "type": "uint256"
        },
        {
          "name": "nameProduct",
          "type": "string"
        },
        {
          "name": "geoCoordinates",
          "type": "string"
        },
        {
          "name": "timeStamp",
          "type": "string"
        },
        {
          "name": "qrCodeDetails",
          "type": "string"
        }
      ],
      "payable": false,
      "stateMutability": "view",
      "type": "function"
    },
    {
      "constant": true,
      "inputs": [],
      "name": "productCount",
      "outputs": [
        {
          "name": "",
          "type": "uint256"
        }
      ],
      "payable": false,
      "stateMutability": "view",
      "type": "function"
    },
    {
      "constant": false,
      "inputs": [
        {
          "name": "_nameProduct",
          "type": "string"
        },
        {
          "name": "_geoCoordinates",
          "type": "string"
        },
        {
          "name": "_timeStamp",
          "type": "string"
        },
        {
          "name": "_qrCodeDetails",
          "type": "string"
        }
      ],
      "name": "addProduct",
      "outputs": [],
      "payable": false,
      "stateMutability": "nonpayable",
      "type": "function"
    }
  ],
  "bytecode": "0x6060604052341561000f57600080fd5b6106e98061001e6000396000f30060606040526004361061006d576000357c0100000000000000000000000000000000000000000000000000000000900463ffffffff1680633affbff014610072578063558d6206146100c7578063884648a314610118578063e0f6ef8714610373578063fde74e811461039c575b600080fd5b341561007d57600080fd5b6100856104c2565b604051808273ffffffffffffffffffffffffffffffffffffffff1673ffffffffffffffffffffffffffffffffffffffff16815260200191505060405180910390f35b34156100d257600080fd5b6100fe600480803573ffffffffffffffffffffffffffffffffffffffff169060200190919050506104e8565b604051808215151515815260200191505060405180910390f35b341561012357600080fd5b6101396004808035906020019091905050610508565b60405180868152602001806020018060200180602001806020018581038552898181546001816001161561010002031660029004815260200191508054600181600116156101000203166002900480156101d45780601f106101a9576101008083540402835291602001916101d4565b820191906000526020600020905b8154815290600101906020018083116101b757829003601f168201915b50508581038452888181546001816001161561010002031660029004815260200191508054600181600116156101000203166002900480156102575780601f1061022c57610100808354040283529160200191610257565b820191906000526020600020905b81548152906001019060200180831161023a57829003601f168201915b50508581038352878181546001816001161561010002031660029004815260200191508054600181600116156101000203166002900480156102da5780601f106102af576101008083540402835291602001916102da565b820191906000526020600020905b8154815290600101906020018083116102bd57829003601f168201915b505085810382528681815460018160011615610100020316600290048152602001915080546001816001161561010002031660029004801561035d5780601f106103325761010080835404028352916020019161035d565b820191906000526020600020905b81548152906001019060200180831161034057829003601f168201915b5050995050505050505050505060405180910390f35b341561037e57600080fd5b61038661053a565b6040518082815260200191505060405180910390f35b34156103a757600080fd5b6104c0600480803590602001908201803590602001908080601f0160208091040260200160405190810160405280939291908181526020018383808284378201915050505050509190803590602001908201803590602001908080601f0160208091040260200160405190810160405280939291908181526020018383808284378201915050505050509190803590602001908201803590602001908080601f0160208091040260200160405190810160405280939291908181526020018383808284378201915050505050509190803590602001908201803590602001908080601f01602080910402602001604051908101604052809392919081815260200183838082843782019150505050505091905050610540565b005b600360009054906101000a900473ffffffffffffffffffffffffffffffffffffffff1681565b60016020528060005260406000206000915054906101000a900460ff1681565b600260205280600052604060002060009150905080600001549080600101908060020190806003019080600401905085565b60045481565b60046000815480929190600101919050555060a0604051908101604052806004548152602001858152602001848152602001838152602001828152506002600060045481526020019081526020016000206000820151816000015560208201518160010190805190602001906105b7929190610618565b5060408201518160020190805190602001906105d4929190610618565b5060608201518160030190805190602001906105f1929190610618565b50608082015181600401908051906020019061060e929190610618565b5090505050505050565b828054600181600116156101000203166002900490600052602060002090601f016020900481019282601f1061065957805160ff1916838001178555610687565b82800160010185558215610687579182015b8281111561068657825182559160200191906001019061066b565b5b5090506106949190610698565b5090565b6106ba91905b808211156106b657600081600090555060010161069e565b5090565b905600a165627a7a72305820027218f70faf8202cef7e316c80ee1e51b616412fe7c12bb1f51291c19ff5fb60029",
  "source": "pragma solidity >=0.4.16 <0.9.0;\n\ncontract DartContract {\n   \n    struct dProductStruct{\n       \n        uint number ;\n        string nameProduct;\n        string geoCoordinates;\n        string timeStamp;\n        string qrCodeDetails;\n    }\n    string private buyer  ;\n    mapping(address => bool) public pvt;\n    mapping(uint => dProductStruct) public dartProduct;\n    address public adpoint ;\n    uint public productCount;\n\n\n    function addProduct (string memory _nameProduct , string memory _geoCoordinates , string memory _timeStamp , string memory _qrCodeDetails ) public {\n        productCount ++;\n        dartProduct[productCount] = dProductStruct(productCount, _nameProduct, _geoCoordinates , _timeStamp , _qrCodeDetails );\n    }\n\n\n    }\n\n\n",
  "sourcePath": "/home/mukundmundhra/z/Dart/contracts/DartContract.sol",
  "compiler": {
    "name": "solc",
    "version": "0.4.18+commit.9cf6e910.Emscripten.clang"
  },
  "schemaVersion": "1.0.1",
  "updatedAt": "2021-11-12T10:41:24.888Z"
}